{
  "_format": "hh-sol-artifact-1",
  "contractName": "Feedback",
  "sourceName": "contracts/Feedback.sol",
  "abi": [
    {
      "inputs": [],
      "stateMutability": "nonpayable",
      "type": "constructor"
    },
    {
      "anonymous": false,
      "inputs": [
        {
          "indexed": true,
          "internalType": "uint256",
          "name": "createdAt",
          "type": "uint256"
        },
        {
          "indexed": false,
          "internalType": "string",
          "name": "message",
          "type": "string"
        },
        {
          "indexed": false,
          "internalType": "string",
          "name": "user",
          "type": "string"
        },
        {
          "indexed": false,
          "internalType": "uint256",
          "name": "rate",
          "type": "uint256"
        }
      ],
      "name": "OnNewFeed",
      "type": "event"
    },
    {
      "inputs": [
        {
          "internalType": "uint256",
          "name": "_rate",
          "type": "uint256"
        },
        {
          "internalType": "string",
          "name": "_message",
          "type": "string"
        },
        {
          "internalType": "string",
          "name": "_user",
          "type": "string"
        }
      ],
      "name": "createFeed",
      "outputs": [],
      "stateMutability": "nonpayable",
      "type": "function"
    },
    {
      "inputs": [
        {
          "internalType": "uint256",
          "name": "",
          "type": "uint256"
        }
      ],
      "name": "feeds",
      "outputs": [
        {
          "internalType": "uint256",
          "name": "rate",
          "type": "uint256"
        },
        {
          "internalType": "uint256",
          "name": "id",
          "type": "uint256"
        },
        {
          "internalType": "uint256",
          "name": "createdAt",
          "type": "uint256"
        },
        {
          "internalType": "string",
          "name": "message",
          "type": "string"
        },
        {
          "internalType": "string",
          "name": "user",
          "type": "string"
        }
      ],
      "stateMutability": "view",
      "type": "function"
    },
    {
      "inputs": [
        {
          "internalType": "uint256",
          "name": "_index",
          "type": "uint256"
        }
      ],
      "name": "getFeed",
      "outputs": [
        {
          "internalType": "uint256",
          "name": "rate",
          "type": "uint256"
        },
        {
          "internalType": "uint256",
          "name": "id",
          "type": "uint256"
        },
        {
          "internalType": "uint256",
          "name": "createdAt",
          "type": "uint256"
        },
        {
          "internalType": "string",
          "name": "message",
          "type": "string"
        },
        {
          "internalType": "string",
          "name": "user",
          "type": "string"
        }
      ],
      "stateMutability": "view",
      "type": "function"
    },
    {
      "inputs": [],
      "name": "getFeedCount",
      "outputs": [
        {
          "internalType": "uint256",
          "name": "",
          "type": "uint256"
        }
      ],
      "stateMutability": "view",
      "type": "function"
    },
    {
      "inputs": [],
      "name": "owner",
      "outputs": [
        {
          "internalType": "address",
          "name": "",
          "type": "address"
        }
      ],
      "stateMutability": "view",
      "type": "function"
    }
  ],
  "bytecode": "0x60a060405234801561001057600080fd5b503373ffffffffffffffffffffffffffffffffffffffff1660808173ffffffffffffffffffffffffffffffffffffffff1660601b8152505060805160601c610c9661006660003960006102800152610c966000f3fe608060405234801561001057600080fd5b50600436106100575760003560e01c80632cc9dfb31461005c5780634a5479f31461007a5780638da5cb5b146100ae578063dda4a5a6146100cc578063ecb76d90146100e8575b600080fd5b61006461011c565b6040516100719190610ac1565b60405180910390f35b610094600480360381019061008f91906107e1565b610128565b6040516100a5959493929190610adc565b60405180910390f35b6100b661027e565b6040516100c391906109fd565b60405180910390f35b6100e660048036038101906100e1919061080a565b6102a2565b005b61010260048036038101906100fd91906107e1565b610449565b604051610113959493929190610adc565b60405180910390f35b60008080549050905090565b6000818154811061013857600080fd5b906000526020600020906005020160009150905080600001549080600101549080600201549080600301805461016d90610bd7565b80601f016020809104026020016040519081016040528092919081815260200182805461019990610bd7565b80156101e65780601f106101bb576101008083540402835291602001916101e6565b820191906000526020600020905b8154815290600101906020018083116101c957829003601f168201915b5050505050908060040180546101fb90610bd7565b80601f016020809104026020016040519081016040528092919081815260200182805461022790610bd7565b80156102745780601f1061024957610100808354040283529160200191610274565b820191906000526020600020905b81548152906001019060200180831161025757829003601f168201915b5050505050905085565b7f000000000000000000000000000000000000000000000000000000000000000081565b846102ac816105ea565b84846102b8828261063e565b84846102c4828261063e565b60006040518060a001604052808c815260200160008054905081526020014281526020018b8b8080601f016020809104026020016040519081016040528093929190818152602001838380828437600081840152601f19601f82011690508083019250505050505050815260200189898080601f016020809104026020016040519081016040528093929190818152602001838380828437600081840152601f19601f82011690508083019250505050505050815250908060018154018082558091505060019003906000526020600020906005020160009091909190915060008201518160000155602082015181600101556040820151816002015560608201518160030190805190602001906103dd9291906106df565b5060808201518160040190805190602001906103fa9291906106df565b505050427fc097457d6e63bcb85174ea0c6f0e56f5b9d21a51bef003d0584d1b51a8b7d8848a8a8a8a8f604051610435959493929190610a18565b60405180910390a250505050505050505050565b60008060006060808561045b81610688565b6000808881548110610496577f4e487b7100000000000000000000000000000000000000000000000000000000600052603260045260246000fd5b9060005260206000209060050201905080600001548160010154826002015483600301846004018180546104c990610bd7565b80601f01602080910402602001604051908101604052809291908181526020018280546104f590610bd7565b80156105425780601f1061051757610100808354040283529160200191610542565b820191906000526020600020905b81548152906001019060200180831161052557829003601f168201915b5050505050915080805461055590610bd7565b80601f016020809104026020016040519081016040528092919081815260200182805461058190610bd7565b80156105ce5780601f106105a3576101008083540402835291602001916105ce565b820191906000526020600020905b8154815290600101906020018083116105b157829003601f168201915b5050505050905096509650965096509650505091939590929450565b600081101580156105fc575060058111155b61063b576040517f08c379a000000000000000000000000000000000000000000000000000000000815260040161063290610aa1565b60405180910390fd5b50565b60008282905011610684576040517f08c379a000000000000000000000000000000000000000000000000000000000815260040161067b90610a81565b60405180910390fd5b5050565b6000811015801561069d575060008054905081105b6106dc576040517f08c379a00000000000000000000000000000000000000000000000000000000081526004016106d390610a61565b60405180910390fd5b50565b8280546106eb90610bd7565b90600052602060002090601f01602090048101928261070d5760008555610754565b82601f1061072657805160ff1916838001178555610754565b82800160010185558215610754579182015b82811115610753578251825591602001919060010190610738565b5b5090506107619190610765565b5090565b5b8082111561077e576000816000905550600101610766565b5090565b60008083601f84011261079457600080fd5b8235905067ffffffffffffffff8111156107ad57600080fd5b6020830191508360018202830111156107c557600080fd5b9250929050565b6000813590506107db81610c49565b92915050565b6000602082840312156107f357600080fd5b6000610801848285016107cc565b91505092915050565b60008060008060006060868803121561082257600080fd5b6000610830888289016107cc565b955050602086013567ffffffffffffffff81111561084d57600080fd5b61085988828901610782565b9450945050604086013567ffffffffffffffff81111561087857600080fd5b61088488828901610782565b92509250509295509295909350565b61089c81610b59565b82525050565b60006108ae8385610b48565b93506108bb838584610b95565b6108c483610c38565b840190509392505050565b60006108da82610b3d565b6108e48185610b48565b93506108f4818560208601610ba4565b6108fd81610c38565b840191505092915050565b6000610915602f83610b48565b91507f5468697320696e646578206973206f757473696465206f662074686520626f7560008301527f6e64206f662074686520617272617900000000000000000000000000000000006020830152604082019050919050565b600061097b601a83610b48565b91507f54686520737472696e672063616e6e6f7420626520656d7074790000000000006000830152602082019050919050565b60006109bb602083610b48565b91507f5468652072617465206d757374206265206265747765656e203020616e6420356000830152602082019050919050565b6109f781610b8b565b82525050565b6000602082019050610a126000830184610893565b92915050565b60006060820190508181036000830152610a338187896108a2565b90508181036020830152610a488185876108a2565b9050610a5760408301846109ee565b9695505050505050565b60006020820190508181036000830152610a7a81610908565b9050919050565b60006020820190508181036000830152610a9a8161096e565b9050919050565b60006020820190508181036000830152610aba816109ae565b9050919050565b6000602082019050610ad660008301846109ee565b92915050565b600060a082019050610af160008301886109ee565b610afe60208301876109ee565b610b0b60408301866109ee565b8181036060830152610b1d81856108cf565b90508181036080830152610b3181846108cf565b90509695505050505050565b600081519050919050565b600082825260208201905092915050565b6000610b6482610b6b565b9050919050565b600073ffffffffffffffffffffffffffffffffffffffff82169050919050565b6000819050919050565b82818337600083830152505050565b60005b83811015610bc2578082015181840152602081019050610ba7565b83811115610bd1576000848401525b50505050565b60006002820490506001821680610bef57607f821691505b60208210811415610c0357610c02610c09565b5b50919050565b7f4e487b7100000000000000000000000000000000000000000000000000000000600052602260045260246000fd5b6000601f19601f8301169050919050565b610c5281610b8b565b8114610c5d57600080fd5b5056fea2646970667358221220a1eaff6c26210386d33c5fbc30a6e1c318806e37fd091c877cb3a9c7b59cfaf664736f6c63430008000033",
  "linkReferences": {},
  "deployedLinkReferences": {}
}