{
  "_format": "hh-sol-artifact-1",
  "contractName": "Feedback",
  "sourceName": "contracts/Feedback.sol",
  "abi": [
    {
      "inputs": [],
      "stateMutability": "nonpayable",
      "type": "constructor"
    },
    {
      "anonymous": false,
      "inputs": [
        {
          "indexed": true,
          "internalType": "uint256",
          "name": "createdAt",
          "type": "uint256"
        },
        {
          "indexed": false,
          "internalType": "string",
          "name": "message",
          "type": "string"
        },
        {
          "indexed": false,
          "internalType": "string",
          "name": "user",
          "type": "string"
        },
        {
          "indexed": false,
          "internalType": "uint256",
          "name": "rate",
          "type": "uint256"
        }
      ],
      "name": "OnNewFeed",
      "type": "event"
    },
    {
      "inputs": [
        {
          "internalType": "uint256",
          "name": "_rate",
          "type": "uint256"
        },
        {
          "internalType": "string",
          "name": "_message",
          "type": "string"
        },
        {
          "internalType": "string",
          "name": "_user",
          "type": "string"
        }
      ],
      "name": "createFeed",
      "outputs": [],
      "stateMutability": "nonpayable",
      "type": "function"
    },
    {
      "inputs": [
        {
          "internalType": "uint256",
          "name": "",
          "type": "uint256"
        }
      ],
      "name": "feeds",
      "outputs": [
        {
          "internalType": "uint256",
          "name": "rate",
          "type": "uint256"
        },
        {
          "internalType": "uint256",
          "name": "id",
          "type": "uint256"
        },
        {
          "internalType": "uint256",
          "name": "createdAt",
          "type": "uint256"
        },
        {
          "internalType": "string",
          "name": "message",
          "type": "string"
        },
        {
          "internalType": "string",
          "name": "user",
          "type": "string"
        }
      ],
      "stateMutability": "view",
      "type": "function"
    },
    {
      "inputs": [
        {
          "internalType": "uint256",
          "name": "_index",
          "type": "uint256"
        }
      ],
      "name": "getFeed",
      "outputs": [
        {
          "internalType": "uint256",
          "name": "rate",
          "type": "uint256"
        },
        {
          "internalType": "uint256",
          "name": "id",
          "type": "uint256"
        },
        {
          "internalType": "uint256",
          "name": "createdAt",
          "type": "uint256"
        },
        {
          "internalType": "string",
          "name": "message",
          "type": "string"
        },
        {
          "internalType": "string",
          "name": "user",
          "type": "string"
        }
      ],
      "stateMutability": "view",
      "type": "function"
    },
    {
      "inputs": [],
      "name": "getFeedCount",
      "outputs": [
        {
          "internalType": "uint256",
          "name": "",
          "type": "uint256"
        }
      ],
      "stateMutability": "view",
      "type": "function"
    },
    {
      "inputs": [],
      "name": "owner",
      "outputs": [
        {
          "internalType": "address",
          "name": "",
          "type": "address"
        }
      ],
      "stateMutability": "view",
      "type": "function"
    }
  ],
  "bytecode": "0x60a06040526000805534801561001457600080fd5b503373ffffffffffffffffffffffffffffffffffffffff1660808173ffffffffffffffffffffffffffffffffffffffff1660601b8152505060805160601c610d5461006a60003960006102810152610d546000f3fe608060405234801561001057600080fd5b50600436106100575760003560e01c80632cc9dfb31461005c5780634a5479f31461007a5780638da5cb5b146100ae578063dda4a5a6146100cc578063ecb76d90146100e8575b600080fd5b61006461011c565b6040516100719190610afa565b60405180910390f35b610094600480360381019061008f919061081a565b610129565b6040516100a5959493929190610b15565b60405180910390f35b6100b661027f565b6040516100c39190610a36565b60405180910390f35b6100e660048036038101906100e19190610843565b6102a3565b005b61010260048036038101906100fd919061081a565b61044f565b604051610113959493929190610b15565b60405180910390f35b6000600180549050905090565b6001818154811061013957600080fd5b906000526020600020906005020160009150905080600001549080600101549080600201549080600301805461016e90610c66565b80601f016020809104026020016040519081016040528092919081815260200182805461019a90610c66565b80156101e75780601f106101bc576101008083540402835291602001916101e7565b820191906000526020600020905b8154815290600101906020018083116101ca57829003601f168201915b5050505050908060040180546101fc90610c66565b80601f016020809104026020016040519081016040528092919081815260200182805461022890610c66565b80156102755780601f1061024a57610100808354040283529160200191610275565b820191906000526020600020905b81548152906001019060200180831161025857829003601f168201915b5050505050905085565b7f000000000000000000000000000000000000000000000000000000000000000081565b846102ad816105f1565b84846102b98282610645565b84846102c58282610645565b60016040518060a001604052808c815260200160005481526020014281526020018b8b8080601f016020809104026020016040519081016040528093929190818152602001838380828437600081840152601f19601f82011690508083019250505050505050815260200189898080601f016020809104026020016040519081016040528093929190818152602001838380828437600081840152601f19601f82011690508083019250505050505050815250908060018154018082558091505060019003906000526020600020906005020160009091909190915060008201518160000155602082015181600101556040820151816002015560608201518160030190805190602001906103db929190610718565b5060808201518160040190805190602001906103f8929190610718565b505050427fc097457d6e63bcb85174ea0c6f0e56f5b9d21a51bef003d0584d1b51a8b7d8848a8a8a8a8f604051610433959493929190610a51565b60405180910390a261044361068f565b50505050505050505050565b600080600060608085610461816106ad565b60006001888154811061049d577f4e487b7100000000000000000000000000000000000000000000000000000000600052603260045260246000fd5b9060005260206000209060050201905080600001548160010154826002015483600301846004018180546104d090610c66565b80601f01602080910402602001604051908101604052809291908181526020018280546104fc90610c66565b80156105495780601f1061051e57610100808354040283529160200191610549565b820191906000526020600020905b81548152906001019060200180831161052c57829003601f168201915b5050505050915080805461055c90610c66565b80601f016020809104026020016040519081016040528092919081815260200182805461058890610c66565b80156105d55780601f106105aa576101008083540402835291602001916105d5565b820191906000526020600020905b8154815290600101906020018083116105b857829003601f168201915b5050505050905096509650965096509650505091939590929450565b60008110158015610603575060058111155b610642576040517f08c379a000000000000000000000000000000000000000000000000000000000815260040161063990610ada565b60405180910390fd5b50565b6000828290501161068b576040517f08c379a000000000000000000000000000000000000000000000000000000000815260040161068290610aba565b60405180910390fd5b5050565b6106a5600160005461070290919063ffffffff16565b600081905550565b600081101580156106c057506000548111155b6106ff576040517f08c379a00000000000000000000000000000000000000000000000000000000081526004016106f690610a9a565b60405180910390fd5b50565b600081836107109190610b92565b905092915050565b82805461072490610c66565b90600052602060002090601f016020900481019282610746576000855561078d565b82601f1061075f57805160ff191683800117855561078d565b8280016001018555821561078d579182015b8281111561078c578251825591602001919060010190610771565b5b50905061079a919061079e565b5090565b5b808211156107b757600081600090555060010161079f565b5090565b60008083601f8401126107cd57600080fd5b8235905067ffffffffffffffff8111156107e657600080fd5b6020830191508360018202830111156107fe57600080fd5b9250929050565b60008135905061081481610d07565b92915050565b60006020828403121561082c57600080fd5b600061083a84828501610805565b91505092915050565b60008060008060006060868803121561085b57600080fd5b600061086988828901610805565b955050602086013567ffffffffffffffff81111561088657600080fd5b610892888289016107bb565b9450945050604086013567ffffffffffffffff8111156108b157600080fd5b6108bd888289016107bb565b92509250509295509295909350565b6108d581610be8565b82525050565b60006108e78385610b81565b93506108f4838584610c24565b6108fd83610cf6565b840190509392505050565b600061091382610b76565b61091d8185610b81565b935061092d818560208601610c33565b61093681610cf6565b840191505092915050565b600061094e602f83610b81565b91507f5468697320696e646578206973206f757473696465206f662074686520626f7560008301527f6e64206f662074686520617272617900000000000000000000000000000000006020830152604082019050919050565b60006109b4601a83610b81565b91507f54686520737472696e672063616e6e6f7420626520656d7074790000000000006000830152602082019050919050565b60006109f4602083610b81565b91507f5468652072617465206d757374206265206265747765656e203020616e6420356000830152602082019050919050565b610a3081610c1a565b82525050565b6000602082019050610a4b60008301846108cc565b92915050565b60006060820190508181036000830152610a6c8187896108db565b90508181036020830152610a818185876108db565b9050610a906040830184610a27565b9695505050505050565b60006020820190508181036000830152610ab381610941565b9050919050565b60006020820190508181036000830152610ad3816109a7565b9050919050565b60006020820190508181036000830152610af3816109e7565b9050919050565b6000602082019050610b0f6000830184610a27565b92915050565b600060a082019050610b2a6000830188610a27565b610b376020830187610a27565b610b446040830186610a27565b8181036060830152610b568185610908565b90508181036080830152610b6a8184610908565b90509695505050505050565b600081519050919050565b600082825260208201905092915050565b6000610b9d82610c1a565b9150610ba883610c1a565b9250827fffffffffffffffffffffffffffffffffffffffffffffffffffffffffffffffff03821115610bdd57610bdc610c98565b5b828201905092915050565b6000610bf382610bfa565b9050919050565b600073ffffffffffffffffffffffffffffffffffffffff82169050919050565b6000819050919050565b82818337600083830152505050565b60005b83811015610c51578082015181840152602081019050610c36565b83811115610c60576000848401525b50505050565b60006002820490506001821680610c7e57607f821691505b60208210811415610c9257610c91610cc7565b5b50919050565b7f4e487b7100000000000000000000000000000000000000000000000000000000600052601160045260246000fd5b7f4e487b7100000000000000000000000000000000000000000000000000000000600052602260045260246000fd5b6000601f19601f8301169050919050565b610d1081610c1a565b8114610d1b57600080fd5b5056fea26469706673582212207589837968ade1838bd678bed2296d77c41a1d3fb63cb73f02b41413c06a6afc64736f6c63430008000033",
  "linkReferences": {},
  "deployedLinkReferences": {}
}