{
  "_format": "hh-sol-artifact-1",
  "contractName": "Feedback",
  "sourceName": "contracts/Feedback.sol",
  "abi": [
    {
      "inputs": [],
      "stateMutability": "nonpayable",
      "type": "constructor"
    },
    {
      "anonymous": false,
      "inputs": [
        {
          "indexed": true,
          "internalType": "uint256",
          "name": "createdAt",
          "type": "uint256"
        },
        {
          "indexed": false,
          "internalType": "string",
          "name": "message",
          "type": "string"
        },
        {
          "indexed": false,
          "internalType": "string",
          "name": "user",
          "type": "string"
        },
        {
          "indexed": false,
          "internalType": "uint256",
          "name": "rate",
          "type": "uint256"
        }
      ],
      "name": "OnNewFeed",
      "type": "event"
    },
    {
      "inputs": [
        {
          "internalType": "uint256",
          "name": "_rate",
          "type": "uint256"
        },
        {
          "internalType": "string",
          "name": "_message",
          "type": "string"
        },
        {
          "internalType": "string",
          "name": "_user",
          "type": "string"
        }
      ],
      "name": "createFeed",
      "outputs": [],
      "stateMutability": "nonpayable",
      "type": "function"
    },
    {
      "inputs": [
        {
          "internalType": "uint256",
          "name": "",
          "type": "uint256"
        }
      ],
      "name": "feeds",
      "outputs": [
        {
          "internalType": "uint256",
          "name": "rate",
          "type": "uint256"
        },
        {
          "internalType": "uint256",
          "name": "id",
          "type": "uint256"
        },
        {
          "internalType": "uint256",
          "name": "createdAt",
          "type": "uint256"
        },
        {
          "internalType": "string",
          "name": "message",
          "type": "string"
        },
        {
          "internalType": "string",
          "name": "user",
          "type": "string"
        }
      ],
      "stateMutability": "view",
      "type": "function"
    },
    {
      "inputs": [],
      "name": "getAllFeeds",
      "outputs": [
        {
          "components": [
            {
              "internalType": "uint256",
              "name": "rate",
              "type": "uint256"
            },
            {
              "internalType": "uint256",
              "name": "id",
              "type": "uint256"
            },
            {
              "internalType": "uint256",
              "name": "createdAt",
              "type": "uint256"
            },
            {
              "internalType": "string",
              "name": "message",
              "type": "string"
            },
            {
              "internalType": "string",
              "name": "user",
              "type": "string"
            }
          ],
          "internalType": "struct Feedback.Feed[]",
          "name": "",
          "type": "tuple[]"
        }
      ],
      "stateMutability": "view",
      "type": "function"
    },
    {
      "inputs": [
        {
          "internalType": "uint256",
          "name": "_index",
          "type": "uint256"
        }
      ],
      "name": "getFeed",
      "outputs": [
        {
          "internalType": "uint256",
          "name": "rate",
          "type": "uint256"
        },
        {
          "internalType": "uint256",
          "name": "id",
          "type": "uint256"
        },
        {
          "internalType": "uint256",
          "name": "createdAt",
          "type": "uint256"
        },
        {
          "internalType": "string",
          "name": "message",
          "type": "string"
        },
        {
          "internalType": "string",
          "name": "user",
          "type": "string"
        }
      ],
      "stateMutability": "view",
      "type": "function"
    },
    {
      "inputs": [],
      "name": "getFeedCount",
      "outputs": [
        {
          "internalType": "uint256",
          "name": "",
          "type": "uint256"
        }
      ],
      "stateMutability": "view",
      "type": "function"
    },
    {
      "inputs": [],
      "name": "getFeedsCount",
      "outputs": [
        {
          "internalType": "uint256",
          "name": "",
          "type": "uint256"
        }
      ],
      "stateMutability": "view",
      "type": "function"
    },
    {
      "inputs": [],
      "name": "owner",
      "outputs": [
        {
          "internalType": "address",
          "name": "",
          "type": "address"
        }
      ],
      "stateMutability": "view",
      "type": "function"
    }
  ],
  "bytecode": "0x60a060405234801561001057600080fd5b503373ffffffffffffffffffffffffffffffffffffffff1660808173ffffffffffffffffffffffffffffffffffffffff1660601b8152505060805160601c61105f610066600039600061048f015261105f6000f3fe608060405234801561001057600080fd5b506004361061007d5760003560e01c80634a5479f31161005b5780634a5479f3146100dc5780638da5cb5b14610110578063dda4a5a61461012e578063ecb76d901461014a5761007d565b806311372e421461008257806312876798146100a05780632cc9dfb3146100be575b600080fd5b61008a61017e565b6040516100979190610e40565b60405180910390f35b6100a861018a565b6040516100b59190610d75565b60405180910390f35b6100c661032b565b6040516100d39190610e40565b60405180910390f35b6100f660048036038101906100f191906109f0565b610337565b604051610107959493929190610e5b565b60405180910390f35b61011861048d565b6040516101259190610d5a565b60405180910390f35b61014860048036038101906101439190610a19565b6104b1565b005b610164600480360381019061015f91906109f0565b610658565b604051610175959493929190610e5b565b60405180910390f35b60008080549050905090565b60606000805480602002602001604051908101604052809291908181526020016000905b8282101561032257838290600052602060002090600502016040518060a00160405290816000820154815260200160018201548152602001600282015481526020016003820180546101ff90610fa0565b80601f016020809104026020016040519081016040528092919081815260200182805461022b90610fa0565b80156102785780601f1061024d57610100808354040283529160200191610278565b820191906000526020600020905b81548152906001019060200180831161025b57829003601f168201915b5050505050815260200160048201805461029190610fa0565b80601f01602080910402602001604051908101604052809291908181526020018280546102bd90610fa0565b801561030a5780601f106102df5761010080835404028352916020019161030a565b820191906000526020600020905b8154815290600101906020018083116102ed57829003601f168201915b505050505081525050815260200190600101906101ae565b50505050905090565b60008080549050905090565b6000818154811061034757600080fd5b906000526020600020906005020160009150905080600001549080600101549080600201549080600301805461037c90610fa0565b80601f01602080910402602001604051908101604052809291908181526020018280546103a890610fa0565b80156103f55780601f106103ca576101008083540402835291602001916103f5565b820191906000526020600020905b8154815290600101906020018083116103d857829003601f168201915b50505050509080600401805461040a90610fa0565b80601f016020809104026020016040519081016040528092919081815260200182805461043690610fa0565b80156104835780601f1061045857610100808354040283529160200191610483565b820191906000526020600020905b81548152906001019060200180831161046657829003601f168201915b5050505050905085565b7f000000000000000000000000000000000000000000000000000000000000000081565b846104bb816107f9565b84846104c7828261084d565b84846104d3828261084d565b60006040518060a001604052808c815260200160008054905081526020014281526020018b8b8080601f016020809104026020016040519081016040528093929190818152602001838380828437600081840152601f19601f82011690508083019250505050505050815260200189898080601f016020809104026020016040519081016040528093929190818152602001838380828437600081840152601f19601f82011690508083019250505050505050815250908060018154018082558091505060019003906000526020600020906005020160009091909190915060008201518160000155602082015181600101556040820151816002015560608201518160030190805190602001906105ec9291906108ee565b5060808201518160040190805190602001906106099291906108ee565b505050427fc097457d6e63bcb85174ea0c6f0e56f5b9d21a51bef003d0584d1b51a8b7d8848a8a8a8a8f604051610644959493929190610d97565b60405180910390a250505050505050505050565b60008060006060808561066a81610897565b60008088815481106106a5577f4e487b7100000000000000000000000000000000000000000000000000000000600052603260045260246000fd5b9060005260206000209060050201905080600001548160010154826002015483600301846004018180546106d890610fa0565b80601f016020809104026020016040519081016040528092919081815260200182805461070490610fa0565b80156107515780601f1061072657610100808354040283529160200191610751565b820191906000526020600020905b81548152906001019060200180831161073457829003601f168201915b5050505050915080805461076490610fa0565b80601f016020809104026020016040519081016040528092919081815260200182805461079090610fa0565b80156107dd5780601f106107b2576101008083540402835291602001916107dd565b820191906000526020600020905b8154815290600101906020018083116107c057829003601f168201915b5050505050905096509650965096509650505091939590929450565b6000811015801561080b575060058111155b61084a576040517f08c379a000000000000000000000000000000000000000000000000000000000815260040161084190610e20565b60405180910390fd5b50565b60008282905011610893576040517f08c379a000000000000000000000000000000000000000000000000000000000815260040161088a90610e00565b60405180910390fd5b5050565b600081101580156108ac575060008054905081105b6108eb576040517f08c379a00000000000000000000000000000000000000000000000000000000081526004016108e290610de0565b60405180910390fd5b50565b8280546108fa90610fa0565b90600052602060002090601f01602090048101928261091c5760008555610963565b82601f1061093557805160ff1916838001178555610963565b82800160010185558215610963579182015b82811115610962578251825591602001919060010190610947565b5b5090506109709190610974565b5090565b5b8082111561098d576000816000905550600101610975565b5090565b60008083601f8401126109a357600080fd5b8235905067ffffffffffffffff8111156109bc57600080fd5b6020830191508360018202830111156109d457600080fd5b9250929050565b6000813590506109ea81611012565b92915050565b600060208284031215610a0257600080fd5b6000610a10848285016109db565b91505092915050565b600080600080600060608688031215610a3157600080fd5b6000610a3f888289016109db565b955050602086013567ffffffffffffffff811115610a5c57600080fd5b610a6888828901610991565b9450945050604086013567ffffffffffffffff811115610a8757600080fd5b610a9388828901610991565b92509250509295509295909350565b6000610aae8383610cbf565b905092915050565b610abf81610f22565b82525050565b6000610ad082610ecc565b610ada8185610eef565b935083602082028501610aec85610ebc565b8060005b85811015610b285784840389528151610b098582610aa2565b9450610b1483610ee2565b925060208a01995050600181019050610af0565b50829750879550505050505092915050565b6000610b468385610f11565b9350610b53838584610f5e565b610b5c83611001565b840190509392505050565b6000610b7282610ed7565b610b7c8185610f00565b9350610b8c818560208601610f6d565b610b9581611001565b840191505092915050565b6000610bab82610ed7565b610bb58185610f11565b9350610bc5818560208601610f6d565b610bce81611001565b840191505092915050565b6000610be6602f83610f11565b91507f5468697320696e646578206973206f757473696465206f662074686520626f7560008301527f6e64206f662074686520617272617900000000000000000000000000000000006020830152604082019050919050565b6000610c4c601a83610f11565b91507f54686520737472696e672063616e6e6f7420626520656d7074790000000000006000830152602082019050919050565b6000610c8c602083610f11565b91507f5468652072617465206d757374206265206265747765656e203020616e6420356000830152602082019050919050565b600060a083016000830151610cd76000860182610d3c565b506020830151610cea6020860182610d3c565b506040830151610cfd6040860182610d3c565b5060608301518482036060860152610d158282610b67565b91505060808301518482036080860152610d2f8282610b67565b9150508091505092915050565b610d4581610f54565b82525050565b610d5481610f54565b82525050565b6000602082019050610d6f6000830184610ab6565b92915050565b60006020820190508181036000830152610d8f8184610ac5565b905092915050565b60006060820190508181036000830152610db2818789610b3a565b90508181036020830152610dc7818587610b3a565b9050610dd66040830184610d4b565b9695505050505050565b60006020820190508181036000830152610df981610bd9565b9050919050565b60006020820190508181036000830152610e1981610c3f565b9050919050565b60006020820190508181036000830152610e3981610c7f565b9050919050565b6000602082019050610e556000830184610d4b565b92915050565b600060a082019050610e706000830188610d4b565b610e7d6020830187610d4b565b610e8a6040830186610d4b565b8181036060830152610e9c8185610ba0565b90508181036080830152610eb08184610ba0565b90509695505050505050565b6000819050602082019050919050565b600081519050919050565b600081519050919050565b6000602082019050919050565b600082825260208201905092915050565b600082825260208201905092915050565b600082825260208201905092915050565b6000610f2d82610f34565b9050919050565b600073ffffffffffffffffffffffffffffffffffffffff82169050919050565b6000819050919050565b82818337600083830152505050565b60005b83811015610f8b578082015181840152602081019050610f70565b83811115610f9a576000848401525b50505050565b60006002820490506001821680610fb857607f821691505b60208210811415610fcc57610fcb610fd2565b5b50919050565b7f4e487b7100000000000000000000000000000000000000000000000000000000600052602260045260246000fd5b6000601f19601f8301169050919050565b61101b81610f54565b811461102657600080fd5b5056fea2646970667358221220e3e843c8bbb70b64c286650845e77b89f190202e31e8ce56fdd71ddcaa3287e364736f6c63430008000033",
  "linkReferences": {},
  "deployedLinkReferences": {}
}