{
  "_format": "hh-sol-artifact-1",
  "contractName": "Feedback",
  "sourceName": "contracts/Feedback.sol",
  "abi": [
    {
      "inputs": [
        {
          "internalType": "address",
          "name": "_owner",
          "type": "address"
        }
      ],
      "stateMutability": "nonpayable",
      "type": "constructor"
    },
    {
      "anonymous": false,
      "inputs": [
        {
          "indexed": true,
          "internalType": "uint256",
          "name": "createdAt",
          "type": "uint256"
        },
        {
          "indexed": true,
          "internalType": "uint256",
          "name": "_rate",
          "type": "uint256"
        },
        {
          "indexed": true,
          "internalType": "string",
          "name": "_user",
          "type": "string"
        },
        {
          "indexed": false,
          "internalType": "string",
          "name": "_message",
          "type": "string"
        }
      ],
      "name": "OnNewFeed",
      "type": "event"
    },
    {
      "anonymous": false,
      "inputs": [
        {
          "indexed": true,
          "internalType": "uint256",
          "name": "createdAt",
          "type": "uint256"
        },
        {
          "indexed": true,
          "internalType": "uint256",
          "name": "index",
          "type": "uint256"
        }
      ],
      "name": "OnNewResponse",
      "type": "event"
    },
    {
      "inputs": [
        {
          "internalType": "uint256",
          "name": "_rate",
          "type": "uint256"
        },
        {
          "internalType": "string",
          "name": "_message",
          "type": "string"
        },
        {
          "internalType": "string",
          "name": "_user",
          "type": "string"
        }
      ],
      "name": "createFeed",
      "outputs": [],
      "stateMutability": "nonpayable",
      "type": "function"
    },
    {
      "inputs": [
        {
          "internalType": "uint256",
          "name": "_index",
          "type": "uint256"
        },
        {
          "internalType": "string",
          "name": "_message",
          "type": "string"
        }
      ],
      "name": "createResponse",
      "outputs": [],
      "stateMutability": "nonpayable",
      "type": "function"
    },
    {
      "inputs": [
        {
          "internalType": "uint256",
          "name": "",
          "type": "uint256"
        }
      ],
      "name": "feeds",
      "outputs": [
        {
          "internalType": "uint256",
          "name": "rate",
          "type": "uint256"
        },
        {
          "internalType": "uint256",
          "name": "id",
          "type": "uint256"
        },
        {
          "internalType": "uint256",
          "name": "createdAt",
          "type": "uint256"
        },
        {
          "internalType": "string",
          "name": "message",
          "type": "string"
        },
        {
          "internalType": "string",
          "name": "user",
          "type": "string"
        },
        {
          "components": [
            {
              "internalType": "uint256",
              "name": "createdAt",
              "type": "uint256"
            },
            {
              "internalType": "string",
              "name": "message",
              "type": "string"
            }
          ],
          "internalType": "struct Feedback.Response",
          "name": "response",
          "type": "tuple"
        }
      ],
      "stateMutability": "view",
      "type": "function"
    },
    {
      "inputs": [],
      "name": "getAllFeeds",
      "outputs": [
        {
          "components": [
            {
              "internalType": "uint256",
              "name": "rate",
              "type": "uint256"
            },
            {
              "internalType": "uint256",
              "name": "id",
              "type": "uint256"
            },
            {
              "internalType": "uint256",
              "name": "createdAt",
              "type": "uint256"
            },
            {
              "internalType": "string",
              "name": "message",
              "type": "string"
            },
            {
              "internalType": "string",
              "name": "user",
              "type": "string"
            },
            {
              "components": [
                {
                  "internalType": "uint256",
                  "name": "createdAt",
                  "type": "uint256"
                },
                {
                  "internalType": "string",
                  "name": "message",
                  "type": "string"
                }
              ],
              "internalType": "struct Feedback.Response",
              "name": "response",
              "type": "tuple"
            }
          ],
          "internalType": "struct Feedback.Feed[]",
          "name": "",
          "type": "tuple[]"
        }
      ],
      "stateMutability": "view",
      "type": "function"
    },
    {
      "inputs": [
        {
          "internalType": "uint256",
          "name": "_index",
          "type": "uint256"
        }
      ],
      "name": "getFeed",
      "outputs": [
        {
          "internalType": "uint256",
          "name": "rate",
          "type": "uint256"
        },
        {
          "internalType": "uint256",
          "name": "id",
          "type": "uint256"
        },
        {
          "internalType": "uint256",
          "name": "createdAt",
          "type": "uint256"
        },
        {
          "internalType": "string",
          "name": "message",
          "type": "string"
        },
        {
          "internalType": "string",
          "name": "user",
          "type": "string"
        },
        {
          "components": [
            {
              "internalType": "uint256",
              "name": "createdAt",
              "type": "uint256"
            },
            {
              "internalType": "string",
              "name": "message",
              "type": "string"
            }
          ],
          "internalType": "struct Feedback.Response",
          "name": "response",
          "type": "tuple"
        }
      ],
      "stateMutability": "view",
      "type": "function"
    },
    {
      "inputs": [],
      "name": "getFeedsCount",
      "outputs": [
        {
          "internalType": "uint256",
          "name": "",
          "type": "uint256"
        }
      ],
      "stateMutability": "view",
      "type": "function"
    },
    {
      "inputs": [],
      "name": "owner",
      "outputs": [
        {
          "internalType": "address",
          "name": "",
          "type": "address"
        }
      ],
      "stateMutability": "view",
      "type": "function"
    }
  ],
  "bytecode": "0x60a06040523480156200001157600080fd5b5060405162001833380380620018338339818101604052810190620000379190620000ff565b600073ffffffffffffffffffffffffffffffffffffffff168173ffffffffffffffffffffffffffffffffffffffff161415620000aa576040517f08c379a0000000000000000000000000000000000000000000000000000000008152600401620000a1906200016d565b60405180910390fd5b8073ffffffffffffffffffffffffffffffffffffffff1660808173ffffffffffffffffffffffffffffffffffffffff1660601b8152505050620001ee565b600081519050620000f981620001d4565b92915050565b6000602082840312156200011257600080fd5b60006200012284828501620000e8565b91505092915050565b60006200013a600d836200018f565b91507f496e76616c6964206f776e6572000000000000000000000000000000000000006000830152602082019050919050565b6000602082019050818103600083015262000188816200012b565b9050919050565b600082825260208201905092915050565b6000620001ad82620001b4565b9050919050565b600073ffffffffffffffffffffffffffffffffffffffff82169050919050565b620001df81620001a0565b8114620001eb57600080fd5b50565b60805160601c61161f62000214600039600081816105df015261077e015261161f6000f3fe608060405234801561001057600080fd5b506004361061007d5760003560e01c80638930fd151161005b5780638930fd15146100f35780638da5cb5b1461010f578063dda4a5a61461012d578063ecb76d90146101495761007d565b806311372e421461008257806312876798146100a05780634a5479f3146100be575b600080fd5b61008a61017e565b60405161009791906113e0565b60405180910390f35b6100a861018a565b6040516100b5919061131a565b60405180910390f35b6100d860048036038101906100d39190610e2b565b6103db565b6040516100ea969594939291906113fb565b60405180910390f35b61010d60048036038101906101089190610e54565b6105dd565b005b61011761077c565b60405161012491906112ff565b60405180910390f35b61014760048036038101906101429190610eac565b6107a0565b005b610163600480360381019061015e9190610e2b565b6109c1565b604051610175969594939291906113fb565b60405180910390f35b60008080549050905090565b60606000805480602002602001604051908101604052809291908181526020016000905b828210156103d257838290600052602060002090600702016040518060c00160405290816000820154815260200160018201548152602001600282015481526020016003820180546101ff90611560565b80601f016020809104026020016040519081016040528092919081815260200182805461022b90611560565b80156102785780601f1061024d57610100808354040283529160200191610278565b820191906000526020600020905b81548152906001019060200180831161025b57829003601f168201915b5050505050815260200160048201805461029190611560565b80601f01602080910402602001604051908101604052809291908181526020018280546102bd90611560565b801561030a5780601f106102df5761010080835404028352916020019161030a565b820191906000526020600020905b8154815290600101906020018083116102ed57829003601f168201915b50505050508152602001600582016040518060400160405290816000820154815260200160018201805461033d90611560565b80601f016020809104026020016040519081016040528092919081815260200182805461036990611560565b80156103b65780601f1061038b576101008083540402835291602001916103b6565b820191906000526020600020905b81548152906001019060200180831161039957829003601f168201915b50505050508152505081525050815260200190600101906101ae565b50505050905090565b600081815481106103eb57600080fd5b906000526020600020906007020160009150905080600001549080600101549080600201549080600301805461042090611560565b80601f016020809104026020016040519081016040528092919081815260200182805461044c90611560565b80156104995780601f1061046e57610100808354040283529160200191610499565b820191906000526020600020905b81548152906001019060200180831161047c57829003601f168201915b5050505050908060040180546104ae90611560565b80601f01602080910402602001604051908101604052809291908181526020018280546104da90611560565b80156105275780601f106104fc57610100808354040283529160200191610527565b820191906000526020600020905b81548152906001019060200180831161050a57829003601f168201915b505050505090806005016040518060400160405290816000820154815260200160018201805461055690611560565b80601f016020809104026020016040519081016040528092919081815260200182805461058290611560565b80156105cf5780601f106105a4576101008083540402835291602001916105cf565b820191906000526020600020905b8154815290600101906020018083116105b257829003601f168201915b505050505081525050905086565b7f000000000000000000000000000000000000000000000000000000000000000073ffffffffffffffffffffffffffffffffffffffff163373ffffffffffffffffffffffffffffffffffffffff161461066b576040517f08c379a0000000000000000000000000000000000000000000000000000000008152600401610662906113c0565b60405180910390fd5b8261067581610c1a565b60008085815481106106b0577f4e487b7100000000000000000000000000000000000000000000000000000000600052603260045260246000fd5b90600052602060002090600702019050604051806040016040528042815260200185858080601f016020809104026020016040519081016040528093929190818152602001838380828437600081840152601f19601f8201169050808301925050505050505081525081600501600082015181600001556020820151816001019080519060200190610743929190610d0f565b5090505084427f1f86d07fba10a954f0ff1a2762d0ab1dca18ead7a54855e3cf0f8476dfb0786d60405160405180910390a35050505050565b7f000000000000000000000000000000000000000000000000000000000000000081565b846107aa81610c71565b84846107b68282610cc5565b84846107c28282610cc5565b6000604051806040016040528042815260200160405180602001604052806000815250815250905060006040518060c001604052808d815260200160008054905081526020014281526020018c8c8080601f016020809104026020016040519081016040528093929190818152602001838380828437600081840152601f19601f8201169050808301925050505050505081526020018a8a8080601f016020809104026020016040519081016040528093929190818152602001838380828437600081840152601f19601f8201169050808301925050505050505081526020018381525090506000819080600181540180825580915050600190039060005260206000209060070201600090919091909150600082015181600001556020820151816001015560408201518160020155606082015181600301908051906020019061090e929190610d0f565b50608082015181600401908051906020019061092b929190610d0f565b5060a08201518160050160008201518160000155602082015181600101908051906020019061095b929190610d0f565b505050505088886040516109709291906112e6565b60405180910390208c427f1678fe76002e572456d0b14b316db83f8108658cfe2a571bef48489675e465b78e8e6040516109ab92919061133c565b60405180910390a4505050505050505050505050565b60008060006060806109d1610d95565b866109db81610c1a565b6000808981548110610a16577f4e487b7100000000000000000000000000000000000000000000000000000000600052603260045260246000fd5b90600052602060002090600702019050806000015481600101548260020154836003018460040185600501828054610a4d90611560565b80601f0160208091040260200160405190810160405280929190818152602001828054610a7990611560565b8015610ac65780601f10610a9b57610100808354040283529160200191610ac6565b820191906000526020600020905b815481529060010190602001808311610aa957829003601f168201915b50505050509250818054610ad990611560565b80601f0160208091040260200160405190810160405280929190818152602001828054610b0590611560565b8015610b525780601f10610b2757610100808354040283529160200191610b52565b820191906000526020600020905b815481529060010190602001808311610b3557829003601f168201915b505050505091508060405180604001604052908160008201548152602001600182018054610b7f90611560565b80601f0160208091040260200160405190810160405280929190818152602001828054610bab90611560565b8015610bf85780601f10610bcd57610100808354040283529160200191610bf8565b820191906000526020600020905b815481529060010190602001808311610bdb57829003601f168201915b5050505050815250509050975097509750975097509750505091939550919395565b60008110158015610c2f575060008054905081105b610c6e576040517f08c379a0000000000000000000000000000000000000000000000000000000008152600401610c6590611360565b60405180910390fd5b50565b60008110158015610c83575060058111155b610cc2576040517f08c379a0000000000000000000000000000000000000000000000000000000008152600401610cb9906113a0565b60405180910390fd5b50565b60008282905011610d0b576040517f08c379a0000000000000000000000000000000000000000000000000000000008152600401610d0290611380565b60405180910390fd5b5050565b828054610d1b90611560565b90600052602060002090601f016020900481019282610d3d5760008555610d84565b82601f10610d5657805160ff1916838001178555610d84565b82800160010185558215610d84579182015b82811115610d83578251825591602001919060010190610d68565b5b509050610d919190610daf565b5090565b604051806040016040528060008152602001606081525090565b5b80821115610dc8576000816000905550600101610db0565b5090565b60008083601f840112610dde57600080fd5b8235905067ffffffffffffffff811115610df757600080fd5b602083019150836001820283011115610e0f57600080fd5b9250929050565b600081359050610e25816115d2565b92915050565b600060208284031215610e3d57600080fd5b6000610e4b84828501610e16565b91505092915050565b600080600060408486031215610e6957600080fd5b6000610e7786828701610e16565b935050602084013567ffffffffffffffff811115610e9457600080fd5b610ea086828701610dcc565b92509250509250925092565b600080600080600060608688031215610ec457600080fd5b6000610ed288828901610e16565b955050602086013567ffffffffffffffff811115610eef57600080fd5b610efb88828901610dcc565b9450945050604086013567ffffffffffffffff811115610f1a57600080fd5b610f2688828901610dcc565b92509250509295509295909350565b6000610f4183836111b7565b905092915050565b610f52816114e2565b82525050565b6000610f6382611481565b610f6d81856114a4565b935083602082028501610f7f85611471565b8060005b85811015610fbb5784840389528151610f9c8582610f35565b9450610fa783611497565b925060208a01995050600181019050610f83565b50829750879550505050505092915050565b6000610fd983856114c6565b9350610fe683858461151e565b610fef836115c1565b840190509392505050565b600061100683856114d7565b935061101383858461151e565b82840190509392505050565b600061102a8261148c565b61103481856114b5565b935061104481856020860161152d565b61104d816115c1565b840191505092915050565b60006110638261148c565b61106d81856114c6565b935061107d81856020860161152d565b611086816115c1565b840191505092915050565b600061109e602f836114c6565b91507f5468697320696e646578206973206f757473696465206f662074686520626f7560008301527f6e64206f662074686520617272617900000000000000000000000000000000006020830152604082019050919050565b6000611104601a836114c6565b91507f54686520737472696e672063616e6e6f7420626520656d7074790000000000006000830152602082019050919050565b60006111446020836114c6565b91507f5468652072617465206d757374206265206265747765656e203020616e6420356000830152602082019050919050565b60006111846019836114c6565b91507f4f6e6c7920746865206f776e65722063616e207265706c792e000000000000006000830152602082019050919050565b600060c0830160008301516111cf60008601826112c8565b5060208301516111e260208601826112c8565b5060408301516111f560408601826112c8565b506060830151848203606086015261120d828261101f565b91505060808301518482036080860152611227828261101f565b91505060a083015184820360a0860152611241828261124e565b9150508091505092915050565b600060408301600083015161126660008601826112c8565b506020830151848203602086015261127e828261101f565b9150508091505092915050565b60006040830160008301516112a360008601826112c8565b50602083015184820360208601526112bb828261101f565b9150508091505092915050565b6112d181611514565b82525050565b6112e081611514565b82525050565b60006112f3828486610ffa565b91508190509392505050565b60006020820190506113146000830184610f49565b92915050565b600060208201905081810360008301526113348184610f58565b905092915050565b60006020820190508181036000830152611357818486610fcd565b90509392505050565b6000602082019050818103600083015261137981611091565b9050919050565b60006020820190508181036000830152611399816110f7565b9050919050565b600060208201905081810360008301526113b981611137565b9050919050565b600060208201905081810360008301526113d981611177565b9050919050565b60006020820190506113f560008301846112d7565b92915050565b600060c08201905061141060008301896112d7565b61141d60208301886112d7565b61142a60408301876112d7565b818103606083015261143c8186611058565b905081810360808301526114508185611058565b905081810360a0830152611464818461128b565b9050979650505050505050565b6000819050602082019050919050565b600081519050919050565b600081519050919050565b6000602082019050919050565b600082825260208201905092915050565b600082825260208201905092915050565b600082825260208201905092915050565b600081905092915050565b60006114ed826114f4565b9050919050565b600073ffffffffffffffffffffffffffffffffffffffff82169050919050565b6000819050919050565b82818337600083830152505050565b60005b8381101561154b578082015181840152602081019050611530565b8381111561155a576000848401525b50505050565b6000600282049050600182168061157857607f821691505b6020821081141561158c5761158b611592565b5b50919050565b7f4e487b7100000000000000000000000000000000000000000000000000000000600052602260045260246000fd5b6000601f19601f8301169050919050565b6115db81611514565b81146115e657600080fd5b5056fea2646970667358221220831846fa725480e2fae97654d60c55b92e1d95e67e5d1f056f437386ef6170e764736f6c63430008000033",
  "linkReferences": {},
  "deployedLinkReferences": {}
}